S012000043616C63756C61746F722E7372656308
S11300000C9434000C9451000C9451000C94510045
S11300100C9451000C9451000C9451000C94510018
S11300200C9451000C9451000C9451000C94510008
S11300300C9451000C9451000C9451000C945100F8
S11300400C9451000C9451000C9451000C945100E8
S11300500C9451000C9451000C9451000C945100D8
S11300600C9451000C94510011241FBECFEFD8E022
S1130070DEBFCDBF11E0A0E0B1E0E6E7FEE002C0E4
S113008005900D92A031B107D9F721E0A0E1B1E0CC
S113009001C01D92A232B207E1F70E9495030C94AD
S11300A039070C9400000E9444040895CF92DF9213
S11300B0EF92FF921F93CF93DF93EC01162F892BBE
S11300C089F428C020E030E040E251E4C701B601E1
S11300D00E946106688379838A839B830E948005DA
S11300E0115003C060E070E0CB01C880D980EA8081
S11300F0FB800E94AF059B01AC01C701B6010E94C1
S11301009C0420E030E0A9010E9409058111DACFA6
S11301101123C1F2DF91CF911F91FF90EF90DF90F7
S1130120CF900895CF92DF92EF92FF920F931F9397
S1130130CF93DF93EC01892B21F533C0970186011E
S1130140000F111F221F331F68017901CC0CDD1C25
S1130150EE1CFF1CCC0CDD1CEE1CFF1CC00ED11EC3
S1130160E21EF31E2AE030E040E050E00E94DE068A
S1130170C60ED71EE81EF91E288339834A835B8383
S113018003C0C12CD12C7601688179818A819B813D
S1130190611571058105910589F6C882D982EA82C3
S11301A0FB82DF91CF911F910F91FF90EF90DF9031
S11301B0CF900895CF92DF92EF92FF92C12CD12C71
S11301C076012AE030E040E050E00E94DE06CA01F9
S11301D0B9012FEFC21AD20AE20AF20A61157105B7
S11301E08105910571F7C701B601FF90EF90DF908B
S11301F0CF900895CF93DF93CDB7DEB72C970FB68A
S1130200F894DEBF0FBECDBF312C00E0023009F4FC
S113021058C028F4002361F00130D1F1F7CF043045
S113022009F489C008F478C0053009F475C2EECF2A
S11302300E949C038D3251F460E080E00E947304BC
S11302408DE20E94990433243394E0CF90ED980F0B
S11302509A30E0F6282F30E020533109A901330FFA
S1130260660B770B49875A876B877C87332061F04D
S113027070956095509541955F4F6F4F7F4F4987BB
S11302805A876B877C87312C0E94990401E0BECF8A
S11302900E949C03E82E5BE2851749F06DE2861705
S11302A031F078E7871719F08FE2E812AFCF62E0F8
S11302B080E00E9473048E2D0E9499041E2D02E09A
S11302C0A5CF0E949C038D3251F464E080E00E942B
S11302D073048DE20E9499043324339497CF90EDF4
S11302E0980F9A3008F092CF882E912C90E3891AB7
S11302F09108092C000CAA08BB08332049F0B094DB
S1130300A09490948094811C911CA11CB11C312C4C
S11303100E94990403E07ACF0E949C03E82E2DE307
S1130320821374CF66E080E00E9473048E2D0E94D5
S1130330990404E06BCF1D3209F479C018F41B3220
S113034041F0E8C11F3209F44CC1183709F4DCC08C
S1130350E1C189859A85AB85BC85880D991DAA1D47
S1130360BB1D89839A83AB83BC8368E080E00E94D1
S1130370730489819A81AB81BC81BB2394F48DE29F
S11303800E94990489819A81AB81BC81B095A09522
S1130390909581959F4FAF4FBF4F89839A83AB83CD
S11303A0BC8349805A806B807C80C301B2010E9467
S11303B0DA006B017C01C2010E94920020C00F2E62
S11303C0FAE04F2E512C612C712CF02DA3019201D7
S11303D00E94000780E3860F0E94990469817A8154
S11303E08B819C81A30192010E94000729833A8397
S11303F04B835C8331E0C31AD108E108F1086981B9
S11304007A818B819C816115710581059105B9F60D
S113041008C080E30E94990441E0C41AD108E108AD
S1130420F108C114D104E104F10499F773C1898579
S11304309A85AB85BC8588199909AA09BB09898362
S11304409A83AB83BC8368E080E00E947304898153
S11304509A81AB81BC81BB2394F48DE20E94990400
S113046089819A81AB81BC81B095A0959095819545
S11304709F4FAF4FBF4F89839A83AB83BC836981FE
S11304807A818B819C810E94DA006B017C01CE0110
S113049001960E94920020C00F2EFAE04F2E512C9C
S11304A0612C712CF02DA30192010E94000780E3BE
S11304B0860F0E94990469817A818B819C81A301B2
S11304C092010E94000729833A834B835C8351E0A5
S11304D0C51AD108E108F10869817A818B819C8170
S11304E06115710581059105B9F608C080E30E9484
S11304F0990461E0C61AD108E108F108C114D104D5
S1130500E104F10499F706C129853A854B855C8598
S1130510C501B4010E94CE0669837A838B839C83D0
S113052068E080E00E94730489819A81AB81BC8178
S1130530BB2394F48DE20E94990489819A81AB8152
S1130540BC81B095A095909581959F4FAF4FBF4FBB
S113055089839A83AB83BC8369817A818B819C81F3
S11305600E94DA006B017C01CE0101960E94920088
S113057020C00F2EFAE04F2E512C612C712CF02D3F
S1130580A30192010E94000780E3860F0E94990450
S113059069817A818B819C81A30192010E94000769
S11305A029833A834B835C8371E0C71AD108E1083D
S11305B0F10869817A818B819C81611571058105BE
S11305C09105B9F608C080E30E94990481E0C81A35
S11305D0D108E108F108C114D104E104F10499F748
S11305E099C069857A858B859C850E94B1056B01CC
S11305F07C01C501B4010E94B1059B01AC01C70196
S1130600B6010E940E056D837E838F83988768E010
S113061080E00E9473046D817E818F81988520E043
S113062030E0A9010E940905882364F48DE20E9448
S113063099048D819E81AF81B885B0588D839E8346
S1130640AF83B887CD80DE80EF80F884C701B60120
S11306500E94800569837A838B839C830E94AF0503
S11306609B01AC01C701B6010E949C046D837E838B
S11306708F83988763E0CE0105960E945600898196
S1130680805D0E9499046D817E818F81988520E030
S113069030E0A9010E9409058823E1F18EE20E945D
S11306A099046D817E818F8198850E94800569837C
S11306B07A838B839C83CE0101960E94920003E08F
S11306C020C069817A818B819C810F2EFAE04F2EA4
S11306D0512C612C712CF02DA30192010E94DE0695
S11306E080E3860F0E94990469817A818B819C81C1
S11306F0A30192010E94DE0629833A834B835C8323
S113070001500111DECF04C080E30E94990401501E
S11307100111FACF05E07ACD0E949C038A3209F0D8
S113072075CD0E94860400E071CD0E9453000E94A2
S1130730FA0080E090E0089587B117B884B114B846
S113074088B18FEF88B940E050E04EC024B181E019
S113075090E0042E02C0880F991F0A94E2F7922FAA
S1130760982B94B995B18095892385B920E030E020
S113077034C086B190E0022E02C0959587950A9404
S1130780E2F780FD1EC0F901EE0FFF1FEE0FFF1F01
S1130790E05FFE4FE40FF51F808181111CC0220F22
S11307A0331F220F331FF901E05FFE4FE40FF51FE3
S11307B081E0808320503F4FF901E40FF51F8081D1
S11307C00895F901EE0FFF1FEE0FFF1FE05FFE4FCC
S11307D0E40FF51F10822F5F3F4F243031054CF298
S11307E084B114B84F5F5F4F443051050CF4AECF61
S11307F08FEF08958FEF8AB98BB92FEF89EF90E0CF
S1130800215080409040E1F700C0000093E89BB97C
S113081083E08BB9EFE3FCE93197F1F700C0000006
S11308209BB98BB9EFE9FFE03197F1F700C0000005
S11308309BB98BB98FE99FE00197F1F700C00000E5
S113084082E88BB982E08BB9EFE9FFE03197F1F7E9
S113085000C000000895982F92959F70292F20685A
S11308602BB99BB98F70982F90689BB98BB98FE186
S113087093E00197F1F700C000008FE193E0019746
S1130880F1F700C00000089580E1809320011092E8
S113089021010E94FA0388E20E942B048CE00E944A
S11308A02B0486E00E942B0480E80E942B04089508
S11308B0982F92959F70292F206A2BB990629BB92B
S11308C08F70982F906A9BB980628BB98FE193E007
S11308D00197F1F700C000008FE193E00197F1F771
S11308E000C000000895811105C080E8860F0E94B1
S11308F02B0407C080EC860F0E942B0481E08093B8
S1130900210185ED8A95F1F70000089581E00E94A8
S11309102B048FE39FE10197F1F700C0000082E010
S11309200E942B048FE39FE10197F1F700C00000C0
S113093008950E94580408955058BB27AA270E947E
S1130940B4040C9427060E94190638F00E9420066D
S113095020F039F49F3F19F426F40C9416060EF493
S1130960E095E7FB0C941006E92F0E94380658F333
S1130970BA17620773078407950720F079F4A6F580
S11309800C945A060EF4E0950B2EBA2FA02D0B01F1
S1130990B90190010C01CA01A0011124FF27591BC0
S11309A099F0593F50F4503E68F11A16F040A22FC6
S11309B0232F342F4427585FF3CF46953795279537
S11309C0A795F0405395C9F77EF41F16BA0B620B36
S11309D0730B840BBAF09150A1F0FF0FBB1F661F7D
S11309E0771F881FC2F70EC0BA0F621F731F841FC0
S11309F048F4879577956795B795F7959E3F08F0E6
S1130A00B0CF9395880F08F09927EE0F97958795A7
S1130A1008950E94EC0508F481E008950E942205DF
S1130A200C9427060E94200658F00E94190640F0F4
S1130A3029F45F3F29F00C94100651110C945B06C5
S1130A400C9416060E94380668F39923B1F35523D3
S1130A5091F3951B550BBB27AA27621773078407CD
S1130A6038F09F5F5F4F220F331F441FAA1FA9F363
S1130A7035D00E2E3AF0E0E832D091505040E69551
S1130A80001CCAF72BD0FE2F29D0660F771F881FB2
S1130A90BB1F261737074807AB07B0E809F0BB0BA5
S1130AA0802DBF01FF2793585F4F3AF09E3F5105B9
S1130AB078F00C9410060C945B065F3FE4F3983EC8
S1130AC0D4F3869577956795B795F7959F5FC9F7A2
S1130AD0880F911D9695879597F90895E1E0660F23
S1130AE0771F881FBB1F621773078407BA0720F09C
S1130AF0621B730B840BBA0BEE1F88F7E095089505
S1130B000E94400688F09F5798F0B92F9927B75153
S1130B10B0F0E1F0660F771F881F991F1AF0BA959D
S1130B20C9F714C0B13091F00E945A06B1E008959B
S1130B300C945A06672F782F8827B85F39F0B93F8D
S1130B40CCF3869577956795B395D9F73EF4909550
S1130B508095709561957F4F8F4F9F4F0895E894CE
S1130B6009C097FB3EF490958095709561957F4FF1
S1130B708F4F9F4F9923A9F0F92F96E9BB2793959F
S1130B80F695879577956795B795F111F8CFFAF4AF
S1130B90BB0F11F460FF1BC06F5F7F4F8F4F9F4FE0
S1130BA016C0882311F096E911C0772321F09EE83E
S1130BB0872F762F05C0662371F096E8862F70E0A4
S1130BC060E02AF09A95660F771F881FDAF7880F7E
S1130BD09695879597F90895990F0008550FAA0BD4
S1130BE0E0E8FEEF16161706E807F907C0F012163C
S1130BF01306E407F50798F0621B730B840B950B3F
S1130C0039F40A2661F0232B242B252B21F4089593
S1130C100A2609F4A140A6958FEF811D811D089530
S1130C2097F99F6780E870E060E008959FEF80EC9B
S1130C30089500240A94161617061806090608953E
S1130C4000240A9412161306140605060895092EA4
S1130C500394000C11F4882352F0BB0F40F4BF2B13
S1130C6011F460FF04C06F5F7F4F8F4F9F4F089553
S1130C7057FD9058440F551F59F05F3F71F0479549
S1130C80880F97FB991F61F09F3F79F0879508952E
S1130C90121613061406551FF2CF4695F1DF08C04D
S1130CA0161617061806991FF1CF8695710561056A
S1130CB008940895E894BB2766277727CB0197F912
S1130CC008950E9474060C9427060E94190638F0B1
S1130CD00E94200620F0952311F00C9410060C9429
S1130CE0160611240C945B060E94380670F3959F37
S1130CF0C1F3950F50E0551F629FF001729FBB270F
S1130D00F00DB11D639FAA27F00DB11DAA1F649FAA
S1130D106627B00DA11D661F829F2227B00DA11D5D
S1130D20621F739FB00DA11D621F839FA00D611DE3
S1130D30221F749F3327A00D611D231F849F600D04
S1130D40211D822F762F6A2F11249F5750409AF02D
S1130D50F1F088234AF0EE0FFF1FBB1F661F771FB9
S1130D60881F91505040A9F79E3F510580F00C9484
S1130D7010060C945B065F3FE4F3983ED4F386952B
S1130D8077956795B795F795E7959F5FC1F7FE2B24
S1130D90880F911D9695879597F90895DB018F9398
S1130DA09F930E941F07BF91AF91A29F800D911D39
S1130DB0A39F900DB29F900D11240895A1E21A2EC5
S1130DC0AA1BBB1BFD010DC0AA1FBB1FEE1FFF1FEB
S1130DD0A217B307E407F50720F0A21BB30BE40B3B
S1130DE0F50B661F771F881F991F1A9469F7609582
S1130DF07095809590959B01AC01BD01CF0108953C
S1130E00052E97FB1EF400940E94170757FD07D088
S1130E100E94DE0607FC03D04EF40C94170750958D
S1130E204095309521953F4F4F4F5F4F08959095D2
S1130E308095709561957F4F8F4F9F4F08950E94C5
S1130E402A07A59F900DB49F900DA49F800D911D1E
S1130E5011240895A29FB001B39FC001A39F700DF8
S1130E60811D1124911DB29F700D811D1124911DAE
S1090E700895F894FFCF81
S1130E763132332B3435362D373839782A303D2FF5
S9030000FC
