:100000000C9434000C9451000C9451000C94510049
:100010000C9451000C9451000C9451000C9451001C
:100020000C9451000C9451000C9451000C9451000C
:100030000C9451000C9451000C9451000C945100FC
:100040000C9451000C9451000C9451000C945100EC
:100050000C9451000C9451000C9451000C945100DC
:100060000C9451000C94510011241FBECFEFD8E026
:10007000DEBFCDBF11E0A0E0B1E0E8E5FAE002C0EC
:1000800005900D92A031B107D9F721E0A0E1B1E0D0
:1000900001C01D92A831B207E1F70E948E010C94B5
:1000A0002A050C940000CF92DF92EF92FF921F93EB
:1000B000CF93DF93EC01162F892B89F428C020E021
:1000C00030E040E251E4C701B6010E94BD046883FC
:1000D00079838A839B830E94DC03115003C060E014
:1000E00070E0CB01C880D980EA80FB800E940B04BD
:1000F0009B01AC01C701B6010E94F80220E030E08C
:10010000A9010E9465038111DACF1123C1F2DF91A9
:10011000CF911F91FF90EF90DF90CF9008950E94B4
:10012000A0020895CF93DF9300D000D0CDB7DEB703
:1001300010E001C015E01230A1F128F4112359F0AC
:100140001130D1F0F8CF143009F44BC0D8F115308C
:1001500009F4DBC0F0CF0E949501E82E00ED080FF6
:100160000A3048F760E080E00E94CF028E2D0E94A6
:10017000F502C02E11E0DFCF0E949501082F8B32CF
:1001800031F08D3221F0883711F08F32A1F662E024
:1001900080E00E94CF02802F0E94F502F02E12E034
:1001A000CACF0E949501E82E00ED080F0A3018F61C
:1001B00064E080E00E94CF028E2D0E94F502D02ED6
:1001C00013E0B9CF0E949501082F8D3309F0B3CF0A
:1001D00066E080E00E94CF02802F0E94F50214E0CA
:1001E000AACF8DE2F816C1F08F1520F08BE2F81639
:1001F00041F0A0CF8FE2F81639F188E7F816B9F090
:1002000099CF68E080E00E94CF028C2D8D0D805D3B
:100210000E94F50215E08FCF68E080E00E94CF02D7
:100220008C2D8D19805D0E94F50215E084CFCD9C48
:10023000102D112468E080E00E94CF02812F805DA4
:100240000E94F50215E077CF6C2D70E080E090E021
:100250000E940B044B015C016D2D70E080E090E08A
:100260000E940D049B01AC01C501B4010E946A0308
:100270004B015C010E94DC03162F70E080E090E0EF
:100280000E940D049B01AC01C501B4010E94F8025B
:1002900069837A838B839C8362E0CE0101960E94FE
:1002A000530068E080E00E94CF0280E3810F0E944B
:1002B000F50269817A818B819C8120E030E0A9017F
:1002C0000E9465038823F9F08EE20E94F50269819D
:1002D0007A818B819C810E94DC0313C01DEC619F9D
:1002E000112D1124169516951695212F220F922F58
:1002F000990F990F920F862F891B805D0E94F5023E
:10030000612F6111EBCF15E016CF0E9495018A3263
:1003100009F011CF0E94E20210E00DCF0E948F0081
:100320000E94920080E090E0089587B117B884B1F0
:1003300014B888B18FEF88B940E050E0B1C024B163
:1003400081E090E0042E02C0880F991F0A94E2F722
:10035000922F982B94B995B18095892385B920E087
:1003600030E096C086B190E0022E02C09595879548
:100370000A94E2F780FD8AC086B190E0809590955E
:10038000022E02C0959587950A94E2F761E0FC0180
:10039000E170FF2780FF60E0862F90E060911201FE
:1003A0007091130186179707F9F060911001709111
:1003B00011016F5F7F4F70931101609310016430E2
:1003C00071050CF451C09093130180931201EF2B2F
:1003D00031F081E090E09093150180931401109228
:1003E00011011092100140C01092110110921001E1
:1003F0003BC086B190E080959095022E02C0959505
:1004000087950A94E2F761E0FC01E170FF2780FF25
:1004100060E0862F90E060911201709113018617C1
:100420009707F1F060911001709111016F5F7F4F9C
:10043000709311016093100164307105ACF09093DA
:10044000130180931201EF2B31F081E090E0909343
:10045000150180931401109211011092100104C033
:1004600010921101109210018091140190911501C8
:10047000892B09F4BECF220F331F220F331F2050C8
:100480003F4FF901E40FF51F808108952F5F3F4F23
:10049000243031050CF466CF84B114B84F5F5F4F40
:1004A000443051050CF44BCF8FEF08958FEF8AB98C
:1004B0008BB92FEF89EF90E0215080409040E1F719
:1004C00000C0000093E89BB983E08BB9EFE3FCE93F
:1004D0003197F1F700C000009BB98BB9EFE9FFE05D
:1004E0003197F1F700C000009BB98BB98FE99FE00D
:1004F0000197F1F700C0000082E88BB982E08BB968
:10050000EFE9FFE03197F1F700C000000895982F60
:1005100092959F70292F20682BB99BB98F70982FC7
:1005200090689BB98BB98FE193E00197F1F700C018
:1005300000008FE193E00197F1F700C000000895FB
:1005400080E180931601109217010E94560288E202
:100550000E9487028CE00E94870286E00E94870248
:1005600080E80E9487020895982F92959F70292F06
:10057000206A2BB990629BB98F70982F906A9BB9B3
:1005800080628BB98FE193E00197F1F700C0000022
:100590008FE193E00197F1F700C000000895811109
:1005A00005C080E8860F0E94870207C080EC860F96
:1005B0000E94870281E08093170185ED8A95F1F70B
:1005C0000000089581E00E9487028FE39FE1019778
:1005D000F1F700C0000082E00E9487028FE39FE1F4
:1005E0000197F1F700C0000008950E94B402089539
:1005F0005058BB27AA270E9410030C9483040E9422
:10060000750438F00E947C0420F039F49F3F19F4FF
:1006100026F40C9472040EF4E095E7FB0C946C0441
:10062000E92F0E94940458F3BA17620773078407EE
:10063000950720F079F4A6F50C94B6040EF4E09535
:100640000B2EBA2FA02D0B01B90190010C01CA018C
:10065000A0011124FF27591B99F0593F50F4503E37
:1006600068F11A16F040A22F232F342F4427585F29
:10067000F3CF469537952795A795F0405395C9F741
:100680007EF41F16BA0B620B730B840BBAF09150F9
:10069000A1F0FF0FBB1F661F771F881FC2F70EC098
:1006A000BA0F621F731F841F48F48795779567956B
:1006B000B795F7959E3F08F0B0CF9395880F08F057
:1006C0009927EE0F9795879508950E94480408F49E
:1006D00081E008950E947E030C9483040E947C04B0
:1006E00058F00E94750440F029F45F3F29F00C9403
:1006F0006C0451110C94B7040C9472040E9494047D
:1007000068F39923B1F3552391F3951B550BBB2740
:10071000AA2762177307840738F09F5F5F4F220F85
:10072000331F441FAA1FA9F335D00E2E3AF0E0E87C
:1007300032D091505040E695001CCAF72BD0FE2FC6
:1007400029D0660F771F881FBB1F2617370748075A
:10075000AB07B0E809F0BB0B802DBF01FF27935812
:100760005F4F3AF09E3F510578F00C946C040C9466
:10077000B7045F3FE4F3983ED4F386957795679589
:10078000B795F7959F5FC9F7880F911D9695879547
:1007900097F90895E1E0660F771F881FBB1F621766
:1007A00073078407BA0720F0621B730B840BBA0B24
:1007B000EE1F88F7E09508950E949C0488F09F57EB
:1007C00098F0B92F9927B751B0F0E1F0660F771F75
:1007D000881F991F1AF0BA95C9F714C0B13091F06B
:1007E0000E94B604B1E008950C94B604672F782FE8
:1007F0008827B85F39F0B93FCCF386957795679530
:10080000B395D9F73EF490958095709561957F4F9B
:100810008F4F9F4F0895E89409C097FB3EF4909541
:100820008095709561957F4F8F4F9F4F9923A9F0C9
:10083000F92F96E9BB279395F69587957795679558
:10084000B795F111F8CFFAF4BB0F11F460FF1BC09C
:100850006F5F7F4F8F4F9F4F16C0882311F096E92F
:1008600011C0772321F09EE8872F762F05C06623DD
:1008700071F096E8862F70E060E02AF09A95660F96
:10088000771F881FDAF7880F9695879597F908954F
:10089000990F0008550FAA0BE0E8FEEF1616170691
:1008A000E807F907C0F012161306E407F50798F0F9
:1008B000621B730B840B950B39F40A2661F0232B12
:1008C000242B252B21F408950A2609F4A140A6958E
:1008D0008FEF811D811D089597F99F6780E870E073
:1008E00060E008959FEF80EC089500240A941616A6
:1008F000170618060906089500240A94121613060E
:10090000140605060895092E0394000C11F488239B
:1009100052F0BB0F40F4BF2B11F460FF04C06F5FB7
:100920007F4F8F4F9F4F089557FD9058440F551F8D
:1009300059F05F3F71F04795880F97FB991F61F061
:100940009F3F79F087950895121613061406551FD8
:10095000F2CF4695F1DF08C0161617061806991F44
:10096000F1CF86957105610508940895E894BB2739
:1009700066277727CB0197F908950E94D0040C943D
:1009800083040E94750438F00E947C0420F09523B3
:1009900011F00C946C040C94720411240C94B704A0
:1009A0000E94940470F3959FC1F3950F50E0551F7A
:1009B000629FF001729FBB27F00DB11D639FAA27B4
:1009C000F00DB11DAA1F649F6627B00DA11D661F03
:1009D000829F2227B00DA11D621F739FB00DA11D24
:1009E000621F839FA00D611D221F749F3327A00DDE
:1009F000611D231F849F600D211D822F762F6A2F7A
:100A000011249F5750409AF0F1F088234AF0EE0FDE
:100A1000FF1FBB1F661F771F881F91505040A9F70B
:100A20009E3F510580F00C946C040C94B7045F3F1A
:100A3000E4F3983ED4F3869577956795B795F79547
:100A4000E7959F5FC1F7FE2B880F911D96958795BF
:080A500097F90895F894FFCF17
:100A58003132332B3435362D373839782A303D2F1B
:00000001FF
