S012000043616C63756C61746F722E7372656308
S11300000C9434000C9451000C9451000C94510045
S11300100C9451000C9451000C9451000C94510018
S11300200C9451000C9451000C9451000C94510008
S11300300C9451000C9451000C9451000C945100F8
S11300400C9451000C9451000C9451000C945100E8
S11300500C9451000C9451000C9451000C945100D8
S11300600C9451000C94510011241FBECFEFD8E022
S1130070DEBFCDBF11E0A0E0B1E0E6E1FFE002C0E9
S113008005900D92A031B107D9F721E0A0E1B1E0CC
S113009001C01D92A831B207E1F70E9482030C94BB
S11300A089070C9400000E9494040895CF92DF9273
S11300B0EF92FF921F93CF93DF93EC01162F892BBE
S11300C089F428C020E030E040E251E4C701B601E1
S11300D00E94B106688379838A839B830E94D0053A
S11300E0115003C060E070E0CB01C880D980EA8081
S11300F0FB800E94FF059B01AC01C701B6010E9471
S1130100EC0420E030E0A9010E9459058111DACF06
S11301101123C1F2DF91CF911F91FF90EF90DF90F7
S1130120CF900895CF92DF92EF92FF920F931F9397
S1130130CF93DF93EC01892B21F533C0970186011E
S1130140000F111F221F331F68017901CC0CDD1C25
S1130150EE1CFF1CCC0CDD1CEE1CFF1CC00ED11EC3
S1130160E21EF31E2AE030E040E050E00E942E0739
S1130170C60ED71EE81EF91E288339834A835B8383
S113018003C0C12CD12C7601688179818A819B813D
S1130190611571058105910589F6C882D982EA82C3
S11301A0FB82DF91CF911F910F91FF90EF90DF9031
S11301B0CF900895CF92DF92EF92FF92C12CD12C71
S11301C076012AE030E040E050E00E942E07CA01A8
S11301D0B9012FEFC21AD20AE20AF20A61157105B7
S11301E08105910571F7C701B601FF90EF90DF908B
S11301F0CF900895CF93DF93CDB7DEB72C970FB68A
S1130200F894DEBF0FBECDBF312C00E0023009F4FC
S113021052C028F4002361F00130A1F1F7CF04307B
S113022009F474C008F463C0053009F462C2EECF67
S11302300E9489038D3251F460E080E00E94C3047F
S11302408DE20E94E90433243394E0CF90ED980FBB
S11302509A30E0F6882E912C20E3821A9108092C1A
S1130260000CAA08BB08332049F0B094A0949094E1
S11302708094811C911CA11CB11C312C0E94E904A6
S113028001E0C4CF0E948903E82E3BE2831749F0C2
S11302904DE2841731F058E7851719F08FE2E81220
S11302A0B5CF62E080E00E94C3048E2D0E94E90471
S11302B01E2D02E0ABCF0E948903E82E80ED8E0D47
S11302C08A3008F0A3CF8E2D90E0C0979C01990F3F
S11302D0440B550B29873A874B875C8764E080E0A1
S11302E00E94C3048E2D0E94E90403E08FCF0E9474
S11302F08903E82E3DE3831389CF66E080E00E9402
S1130300C3048E2D0E94E90404E080CF1D3209F459
S113031079C018F41B3241F0EAC11F3209F44EC10E
S1130320183709F4DEC0E3C189859A85AB85BC859D
S1130330880D991DAA1DBB1D89839A83AB83BC8339
S113034068E080E00E94C30489819A81AB81BC810A
S1130350BB2394F48DE20E94E90489819A81AB81E4
S1130360BC81B095A095909581959F4FAF4FBF4F9D
S113037089839A83AB83BC8349805A806B807C8059
S1130380C301B2010E94DA006B017C01C2010E9428
S1130390920020C00F2EFAE04F2E512C612C712CAC
S11303A0F02DA30192010E94500780E3860F0E9462
S11303B0E90469817A818B819C81A30192010E9465
S11303C0500729833A834B835C8341E0C41AD108E4
S11303D0E108F10869817A818B819C81611571053D
S11303E081059105B9F608C080E30E94E90451E053
S11303F0C51AD108E108F108C114D104E104F104DB
S113040099F775C1D501C40129853A854B855C8569
S1130410821B930BA40BB50B89839A83AB83BC8398
S113042068E080E00E94C30489819A81AB81BC8129
S1130430BB2394F48DE20E94E90489819A81AB8103
S1130440BC81B095A095909581959F4FAF4FBF4FBC
S113045089839A83AB83BC8369817A818B819C81F4
S11304600E94DA006B017C01CE0101960E94920089
S113047020C00F2EFAE04F2E512C612C712CF02D40
S1130480A30192010E94500780E3860F0E94E904B1
S113049069817A818B819C81A30192010E9450071A
S11304A029833A834B835C8331E0C31AD108E10882
S11304B0F10869817A818B819C81611571058105BF
S11304C09105B9F608C080E30E94E90441E0C41A2A
S11304D0D108E108F108C114D104E104F10499F749
S11304E006C1A501940169857A858B859C850E9446
S11304F01E0769837A838B839C8368E080E00E9473
S1130500C30489819A81AB81BC81BB2394F48DE2BD
S11305100E94E90489819A81AB81BC81B095A09540
S1130520909581959F4FAF4FBF4F89839A83AB833B
S1130530BC8369817A818B819C810E94DA006B0182
S11305407C01CE0101960E94920020C00F2EFAE099
S11305504F2E512C612C712CF02DA30192010E947D
S1130560500780E3860F0E94E90469817A818B81B8
S11305709C81A30192010E94500729833A834B83F3
S11305805C8351E0C51AD108E108F10869817A81D8
S11305908B819C816115710581059105B9F608C0AF
S11305A080E30E94E90481E0C81AD108E108F10857
S11305B0C114D104E104F10499F799C0C501B4014F
S11305C00E9401066B017C0169857A858B859C8577
S11305D00E9401069B01AC01C701B6010E945E05A1
S11305E06D837E838F83988768E080E00E94C304D4
S11305F06D817E818F81988520E030E0A9010E9481
S11306005905882364F48DE20E94E9048D819E815A
S1130610AF81B885B0588D839E83AF83B887CD8072
S1130620DE80EF80F884C701B6010E94D00569839B
S11306307A838B839C830E94FF059B01AC01C701D5
S1130640B6010E94EC046D837E838F83988763E0F8
S1130650CE0105960E9456008981805D0E94E904BE
S11306606D817E818F81988520E030E0A9010E9410
S113067059058823E1F18EE20E94E9046D817E81AF
S11306808F8198850E94D00569837A838B839C83AC
S1130690CE0101960E94920003E020C069817A8114
S11306A08B819C810F2EFAE04F2E512C612C712CE2
S11306B0F02DA30192010E942E0780E3860F0E9471
S11306C0E90469817A818B819C81A30192010E9452
S11306D02E0729833A834B835C8301500111DECFBB
S11306E004C080E30E94E90401500111FACF05E03F
S11306F08DCD0E9489038A3209F088CD0E94D604E8
S113070000E084CD0E9453000E94FA0080E090E053
S1130710089587B117B884B114B888B18FEF88B938
S113072040E050E0B1C024B181E090E0042E02C06A
S1130730880F991F0A94E2F7922F982B94B995B1D8
S11307408095892385B920E030E096C086B190E099
S1130750022E02C0959587950A94E2F780FD8AC01F
S113076086B190E080959095022E02C0959587956C
S11307700A94E2F761E0FC01E170FF2780FF60E08A
S1130780862F90E0609112017091130186179707EC
S1130790F9F060911001709111016F5F7F4F7093B8
S11307A0110160931001643071050CF451C09093F1
S11307B0130180931201EF2B31F081E090E09093CC
S11307C0150180931401109211011092100140C080
S11307D010921101109210013BC086B190E08095F7
S11307E09095022E02C0959587950A94E2F761E0F0
S11307F0FC01E170FF2780FF60E0862F90E06091AC
S113080012017091130186179707F1F0609110019E
S1130810709111016F5F7F4F70931101609310010C
S113082064307105ACF09093130180931201EF2BA7
S113083031F081E090E090931501809314011092BF
S113084011011092100104C01092110110921001B4
S11308508091140190911501892B09F4BECF220FC8
S1130860331F220F331F20503F4FF901E40FF51FB0
S1130870808108952F5F3F4F243031050CF466CFFB
S113088084B114B84F5F5F4F443051050CF44BCF23
S11308908FEF08958FEF8AB98BB92FEF89EF90E02E
S11308A0215080409040E1F700C0000093E89BB9DC
S11308B083E08BB9EFE3FCE93197F1F700C0000066
S11308C09BB98BB9EFE9FFE03197F1F700C0000065
S11308D09BB98BB98FE99FE00197F1F700C0000045
S11308E082E88BB982E08BB9EFE9FFE03197F1F749
S11308F000C000000895982F92959F70292F2068BA
S11309002BB99BB98F70982F90689BB98BB98FE1E5
S113091093E00197F1F700C000008FE193E00197A5
S1130920F1F700C00000089580E180931601109251
S113093017010E944A0488E20E947B048CE00E9412
S11309407B0486E00E947B0480E80E947B04089577
S1130950982F92959F70292F206A2BB990629BB98A
S11309608F70982F906A9BB980628BB98FE193E066
S11309700197F1F700C000008FE193E00197F1F7D0
S113098000C000000895811105C080E8860F0E9410
S11309907B0407C080EC860F0E947B0481E0809377
S11309A0170185ED8A95F1F70000089581E00E9412
S11309B07B048FE39FE10197F1F700C0000082E020
S11309C00E947B048FE39FE10197F1F700C00000D0
S11309D008950E94A80408955058BB27AA270E948E
S11309E004050C9477060E94690638F00E9470068C
S11309F020F039F49F3F19F426F40C9466060EF4A3
S1130A00E095E7FB0C946006E92F0E94880658F3F2
S1130A10BA17620773078407950720F079F4A6F5DF
S1130A200C94AA060EF4E0950B2EBA2FA02D0B0100
S1130A30B90190010C01CA01A0011124FF27591B1F
S1130A4099F0593F50F4503E68F11A16F040A22F25
S1130A50232F342F4427585FF3CF46953795279596
S1130A60A795F0405395C9F77EF41F16BA0B620B95
S1130A70730B840BBAF09150A1F0FF0FBB1F661FDC
S1130A80771F881FC2F70EC0BA0F621F731F841F1F
S1130A9048F4879577956795B795F7959E3F08F045
S1130AA0B0CF9395880F08F09927EE0F9795879507
S1130AB008950E943C0608F481E008950E9472059E
S1130AC00C9477060E94700658F00E94690640F064
S1130AD029F45F3F29F00C94600651110C94AB0685
S1130AE00C9466060E94880668F39923B1F3552393
S1130AF091F3951B550BBB27AA276217730784072D
S1130B0038F09F5F5F4F220F331F441FAA1FA9F3C2
S1130B1035D00E2E3AF0E0E832D091505040E695B0
S1130B20001CCAF72BD0FE2F29D0660F771F881F11
S1130B30BB1F261737074807AB07B0E809F0BB0B04
S1130B40802DBF01FF2793585F4F3AF09E3F510518
S1130B5078F00C9460060C94AB065F3FE4F3983E87
S1130B60D4F3869577956795B795F7959F5FC9F701
S1130B70880F911D9695879597F90895E1E0660F82
S1130B80771F881FBB1F621773078407BA0720F0FB
S1130B90621B730B840BBA0BEE1F88F7E095089564
S1130BA00E94900688F09F5798F0B92F9927B75163
S1130BB0B0F0E1F0660F771F881F991F1AF0BA95FD
S1130BC0C9F714C0B13091F00E94AA06B1E00895AB
S1130BD00C94AA06672F782F8827B85F39F0B93F9D
S1130BE0CCF3869577956795B395D9F73EF49095B0
S1130BF08095709561957F4F8F4F9F4F0895E8942E
S1130C0009C097FB3EF490958095709561957F4F50
S1130C108F4F9F4F9923A9F0F92F96E9BB279395FE
S1130C20F695879577956795B795F111F8CFFAF40E
S1130C30BB0F11F460FF1BC06F5F7F4F8F4F9F4F3F
S1130C4016C0882311F096E911C0772321F09EE89D
S1130C50872F762F05C0662371F096E8862F70E003
S1130C6060E02AF09A95660F771F881FDAF7880FDD
S1130C709695879597F90895990F0008550FAA0B33
S1130C80E0E8FEEF16161706E807F907C0F012169B
S1130C901306E407F50798F0621B730B840B950B9E
S1130CA039F40A2661F0232B242B252B21F40895F3
S1130CB00A2609F4A140A6958FEF811D811D089590
S1130CC097F99F6780E870E060E008959FEF80ECFB
S1130CD0089500240A94161617061806090608959E
S1130CE000240A9412161306140605060895092E04
S1130CF00394000C11F4882352F0BB0F40F4BF2B73
S1130D0011F460FF04C06F5F7F4F8F4F9F4F0895B2
S1130D1057FD9058440F551F59F05F3F71F04795A8
S1130D20880F97FB991F61F09F3F79F0879508958D
S1130D30121613061406551FF2CF4695F1DF08C0AC
S1130D40161617061806991FF1CF869571056105C9
S1130D5008940895E894BB2766277727CB0197F971
S1130D6008950E94C4060C9477060E94690638F020
S1130D700E94700620F0952311F00C9460060C94E8
S1130D80660611240C94AB060E94880670F3959FA6
S1130D90C1F3950F50E0551F629FF001729FBB276E
S1130DA0F00DB11D639FAA27F00DB11DAA1F649F0A
S1130DB06627B00DA11D661F829F2227B00DA11DBD
S1130DC0621F739FB00DA11D621F839FA00D611D43
S1130DD0221F749F3327A00D611D231F849F600D64
S1130DE0211D822F762F6A2F11249F5750409AF08D
S1130DF0F1F088234AF0EE0FFF1FBB1F661F771F19
S1130E00881F91505040A9F79E3F510580F00C94E3
S1130E1060060C94AB065F3FE4F3983ED4F38695EA
S1130E2077956795B795F795E7959F5FC1F7FE2B83
S1130E30880F911D9695879597F90895DB018F93F7
S1130E409F930E946F07BF91AF91A29F800D911D48
S1130E50A39F900DB29F900D11240895A1E21A2E24
S1130E60AA1BBB1BFD010DC0AA1FBB1FEE1FFF1F4A
S1130E70A217B307E407F50720F0A21BB30BE40B9A
S1130E80F50B661F771F881F991F1A9469F76095E1
S1130E907095809590959B01AC01BD01CF0108959B
S1130EA0052E97FB1EF400940E94670757FD07D098
S1130EB00E942E0707FC03D04EF40C94670750954C
S1130EC04095309521953F4F4F4F5F4F0895909532
S1130ED08095709561957F4F8F4F9F4F08950E9425
S1130EE07A07A59F900DB49F900DA49F800D911D2E
S1130EF011240895A29FB001B39FC001A39F700D58
S1130F00811D1124911DB29F700D811D1124911D0D
S1090F100895F894FFCFE0
S1130F163132332B3435362D373839782A303D2F54
S9030000FC
